{
  "contractName": "SupplyChain",
  "abi": [
    {
      "constant": false,
      "inputs": [
        {
          "components": [
            {
              "name": "role",
              "type": "uint8"
            },
            {
              "name": "id_",
              "type": "address"
            },
            {
              "name": "name",
              "type": "string"
            },
            {
              "name": "email",
              "type": "string"
            },
            {
              "name": "isValue",
              "type": "bool"
            }
          ],
          "name": "user",
          "type": "tuple"
        }
      ],
      "name": "addUser",
      "outputs": [],
      "payable": false,
      "stateMutability": "nonpayable",
      "type": "function"
    },
    {
      "anonymous": false,
      "inputs": [
        {
          "indexed": false,
          "name": "id_lot",
          "type": "uint256"
        },
        {
          "indexed": false,
          "name": "barcodeId",
          "type": "string"
        },
        {
          "indexed": false,
          "name": "lot_user_addr",
          "type": "address"
        },
        {
          "indexed": false,
          "name": "source",
          "type": "string"
        },
        {
          "indexed": false,
          "name": "variety",
          "type": "string"
        },
        {
          "indexed": false,
          "name": "quality",
          "type": "string"
        },
        {
          "indexed": false,
          "name": "temprature",
          "type": "uint256"
        },
        {
          "indexed": false,
          "name": "humidity",
          "type": "uint256"
        },
        {
          "indexed": false,
          "name": "date",
          "type": "uint256"
        }
      ],
      "name": "NewLot",
      "type": "event"
    },
    {
      "anonymous": false,
      "inputs": [
        {
          "indexed": false,
          "name": "name",
          "type": "string"
        },
        {
          "indexed": false,
          "name": "email",
          "type": "string"
        },
        {
          "indexed": false,
          "name": "role",
          "type": "uint8"
        }
      ],
      "name": "NewUser",
      "type": "event"
    },
    {
      "anonymous": false,
      "inputs": [
        {
          "indexed": false,
          "name": "name",
          "type": "string"
        },
        {
          "indexed": false,
          "name": "email",
          "type": "string"
        },
        {
          "indexed": false,
          "name": "role",
          "type": "uint8"
        }
      ],
      "name": "LostUser",
      "type": "event"
    },
    {
      "constant": true,
      "inputs": [
        {
          "name": "barcode",
          "type": "string"
        }
      ],
      "name": "getOwnableLot",
      "outputs": [
        {
          "name": "",
          "type": "uint256"
        },
        {
          "name": "",
          "type": "string"
        },
        {
          "name": "",
          "type": "address"
        },
        {
          "name": "",
          "type": "string"
        },
        {
          "name": "",
          "type": "string"
        },
        {
          "name": "",
          "type": "string"
        },
        {
          "name": "",
          "type": "uint256"
        },
        {
          "name": "",
          "type": "uint256"
        },
        {
          "name": "",
          "type": "uint256"
        },
        {
          "name": "",
          "type": "uint256"
        }
      ],
      "payable": false,
      "stateMutability": "view",
      "type": "function"
    },
    {
      "constant": false,
      "inputs": [
        {
          "components": [
            {
              "name": "id_lot",
              "type": "uint256"
            },
            {
              "name": "barcodeId",
              "type": "string"
            },
            {
              "name": "lot_user_addr",
              "type": "address"
            },
            {
              "name": "source",
              "type": "string"
            },
            {
              "name": "variety",
              "type": "string"
            },
            {
              "name": "quality",
              "type": "string"
            },
            {
              "name": "temprature",
              "type": "uint256"
            },
            {
              "name": "humidity",
              "type": "uint256"
            },
            {
              "name": "date",
              "type": "uint256"
            },
            {
              "name": "stockdate",
              "type": "uint256"
            }
          ],
          "name": "lot_",
          "type": "tuple"
        },
        {
          "name": "currentTime_",
          "type": "uint256"
        }
      ],
      "name": "addLot",
      "outputs": [],
      "payable": false,
      "stateMutability": "nonpayable",
      "type": "function"
    },
    {
      "constant": false,
      "inputs": [
        {
          "components": [
            {
              "name": "buyer",
              "type": "address"
            },
            {
              "name": "receiver",
              "type": "address"
            },
            {
              "name": "transferdate",
              "type": "string"
            },
            {
              "name": "price",
              "type": "uint256"
            },
            {
              "name": "type_",
              "type": "uint8"
            }
          ],
          "name": "transaction_",
          "type": "tuple"
        },
        {
          "name": "barcodeId_",
          "type": "string"
        },
        {
          "name": "currentTime_",
          "type": "uint256"
        }
      ],
      "name": "addTransaction",
      "outputs": [],
      "payable": false,
      "stateMutability": "nonpayable",
      "type": "function"
    },
    {
      "constant": false,
      "inputs": [
        {
          "name": "barcodeId_",
          "type": "string"
        },
        {
          "name": "newStockDate",
          "type": "uint256"
        }
      ],
      "name": "updateStockdate",
      "outputs": [],
      "payable": false,
      "stateMutability": "nonpayable",
      "type": "function"
    },
    {
      "constant": true,
      "inputs": [],
      "name": "getAllTransactions",
      "outputs": [
        {
          "components": [
            {
              "name": "buyer",
              "type": "address"
            },
            {
              "name": "receiver",
              "type": "address"
            },
            {
              "name": "transferdate",
              "type": "string"
            },
            {
              "name": "price",
              "type": "uint256"
            },
            {
              "name": "type_",
              "type": "uint8"
            }
          ],
          "name": "",
          "type": "tuple[]"
        }
      ],
      "payable": false,
      "stateMutability": "view",
      "type": "function"
    },
    {
      "constant": true,
      "inputs": [],
      "name": "getAllLots",
      "outputs": [
        {
          "components": [
            {
              "name": "id_lot",
              "type": "uint256"
            },
            {
              "name": "barcodeId",
              "type": "string"
            },
            {
              "name": "lot_user_addr",
              "type": "address"
            },
            {
              "name": "source",
              "type": "string"
            },
            {
              "name": "variety",
              "type": "string"
            },
            {
              "name": "quality",
              "type": "string"
            },
            {
              "name": "temprature",
              "type": "uint256"
            },
            {
              "name": "humidity",
              "type": "uint256"
            },
            {
              "name": "date",
              "type": "uint256"
            },
            {
              "name": "stockdate",
              "type": "uint256"
            }
          ],
          "name": "",
          "type": "tuple[]"
        }
      ],
      "payable": false,
      "stateMutability": "view",
      "type": "function"
    },
    {
      "constant": true,
      "inputs": [],
      "name": "getMyAddress",
      "outputs": [
        {
          "name": "",
          "type": "address"
        }
      ],
      "payable": false,
      "stateMutability": "view",
      "type": "function"
    },
    {
      "constant": true,
      "inputs": [],
      "name": "getMyLots",
      "outputs": [
        {
          "components": [
            {
              "name": "id_lot",
              "type": "uint256"
            },
            {
              "name": "barcodeId",
              "type": "string"
            },
            {
              "name": "lot_user_addr",
              "type": "address"
            },
            {
              "name": "source",
              "type": "string"
            },
            {
              "name": "variety",
              "type": "string"
            },
            {
              "name": "quality",
              "type": "string"
            },
            {
              "name": "temprature",
              "type": "uint256"
            },
            {
              "name": "humidity",
              "type": "uint256"
            },
            {
              "name": "date",
              "type": "uint256"
            },
            {
              "name": "stockdate",
              "type": "uint256"
            }
          ],
          "name": "",
          "type": "tuple[]"
        }
      ],
      "payable": false,
      "stateMutability": "view",
      "type": "function"
    },
    {
      "constant": true,
      "inputs": [
        {
          "name": "barcodeId_",
          "type": "string"
        }
      ],
      "name": "getSingleLot",
      "outputs": [
        {
          "components": [
            {
              "name": "id_lot",
              "type": "uint256"
            },
            {
              "name": "barcodeId",
              "type": "string"
            },
            {
              "name": "lot_user_addr",
              "type": "address"
            },
            {
              "name": "source",
              "type": "string"
            },
            {
              "name": "variety",
              "type": "string"
            },
            {
              "name": "quality",
              "type": "string"
            },
            {
              "name": "temprature",
              "type": "uint256"
            },
            {
              "name": "humidity",
              "type": "uint256"
            },
            {
              "name": "date",
              "type": "uint256"
            },
            {
              "name": "stockdate",
              "type": "uint256"
            }
          ],
          "name": "",
          "type": "tuple"
        }
      ],
      "payable": false,
      "stateMutability": "view",
      "type": "function"
    },
    {
      "constant": true,
      "inputs": [
        {
          "name": "barcodeId_",
          "type": "string"
        }
      ],
      "name": "getSingleLotHistory",
      "outputs": [
        {
          "components": [
            {
              "name": "id_lot",
              "type": "uint256"
            },
            {
              "name": "barcodeId",
              "type": "string"
            },
            {
              "name": "lot_user_addr",
              "type": "address"
            },
            {
              "name": "source",
              "type": "string"
            },
            {
              "name": "variety",
              "type": "string"
            },
            {
              "name": "quality",
              "type": "string"
            },
            {
              "name": "temprature",
              "type": "uint256"
            },
            {
              "name": "humidity",
              "type": "uint256"
            },
            {
              "name": "date",
              "type": "uint256"
            },
            {
              "name": "stockdate",
              "type": "uint256"
            }
          ],
          "name": "",
          "type": "tuple"
        },
        {
          "components": [
            {
              "components": [
                {
                  "name": "id_",
                  "type": "address"
                },
                {
                  "name": "date",
                  "type": "uint256"
                },
                {
                  "name": "stockdate",
                  "type": "uint256"
                },
                {
                  "name": "action",
                  "type": "uint8"
                }
              ],
              "name": "usershistory",
              "type": "tuple[]"
            }
          ],
          "name": "",
          "type": "tuple"
        }
      ],
      "payable": false,
      "stateMutability": "view",
      "type": "function"
    },
    {
      "constant": true,
      "inputs": [
        {
          "name": "id_",
          "type": "address"
        }
      ],
      "name": "getUserDetails",
      "outputs": [
        {
          "components": [
            {
              "name": "role",
              "type": "uint8"
            },
            {
              "name": "id_",
              "type": "address"
            },
            {
              "name": "name",
              "type": "string"
            },
            {
              "name": "email",
              "type": "string"
            },
            {
              "name": "isValue",
              "type": "bool"
            }
          ],
          "name": "",
          "type": "tuple"
        }
      ],
      "payable": false,
      "stateMutability": "view",
      "type": "function"
    },
    {
      "constant": true,
      "inputs": [],
      "name": "getMyDetails",
      "outputs": [
        {
          "components": [
            {
              "name": "role",
              "type": "uint8"
            },
            {
              "name": "id_",
              "type": "address"
            },
            {
              "name": "name",
              "type": "string"
            },
            {
              "name": "email",
              "type": "string"
            },
            {
              "name": "isValue",
              "type": "bool"
            }
          ],
          "name": "",
          "type": "tuple"
        }
      ],
      "payable": false,
      "stateMutability": "view",
      "type": "function"
    }
  ],
  "bytecode": "0x60806040526200000e620002ce565b506040805160a081018252600180825273795588ec361f2b766ea61cd4b65c42e0dd4a876b60208084019190915283518085018552600381527f496f54000000000000000000000000000000000000000000000000000000000081830152838501528351808501909452600f84527f496f54406578616d706c652e636f6d00000000000000000000000000000000009084015260608201929092526080810191909152620000bb620002ce565b506040805160a081018252600280825273f0fe51d2f0a1b450ba6f4c03603b78a932fe771f602080840191909152835180850185529182527f4442000000000000000000000000000000000000000000000000000000000000828201528284019190915282518084018452600e81527f4442406578616d706c652e636f6d00000000000000000000000000000000000081830152606083015260016080830181905284820151600160a060020a03166000908152918290529290208351815492938593839160ff19909116908360048111156200019457fe5b02179055506020828101518254600160a060020a039091166101000261010060a860020a031990911617825560408301518051620001d99260018501920190620002fd565b5060608201518051620001f7916002840191602090910190620002fd565b50608091909101516003909101805491151560ff19928316179055602080830151600160a060020a03166000908152908190526040902082518154849383911660018360048111156200024657fe5b02179055506020828101518254600160a060020a039091166101000261010060a860020a0319909116178255604083015180516200028b9260018501920190620002fd565b5060608201518051620002a9916002840191602090910190620002fd565b50608091909101516003909101805460ff191691151591909117905550620003a29050565b6040805160a0810190915280600081526000602082018190526060604083018190528083015260809091015290565b828054600181600116156101000203166002900490600052602060002090601f016020900481019282601f106200034057805160ff191683800117855562000370565b8280016001018555821562000370579182015b828111156200037057825182559160200191906001019062000353565b506200037e92915062000382565b5090565b6200039f91905b808211156200037e576000815560010162000389565b90565b613b1280620003b26000396000f3fe6080604052600436106100c45763ffffffff7c01000000000000000000000000000000000000000000000000000000006000350416632653823381146100c957806327506f531461010057806332f3adf514610122578063431bbb7e146101445780635a3d3a6f14610166578063612fc9061461018657806382d93c32146101a85780638e3bea6f146101de57806392c5da5d146101f35780639a16629914610213578063b935dc3714610235578063cc3d967b14610255578063e378e47f14610275575b600080fd5b3480156100d557600080fd5b506100e96100e4366004613089565b6102a2565b6040516100f792919061384c565b60405180910390f35b34801561010c57600080fd5b506101156103f7565b6040516100f79190613786565b34801561012e57600080fd5b5061014261013d366004613145565b61053b565b005b34801561015057600080fd5b50610159610582565b6040516100f79190613871565b34801561017257600080fd5b506101426101813660046130be565b61074e565b34801561019257600080fd5b5061019b610811565b6040516100f79190613775565b3480156101b457600080fd5b506101c86101c3366004613089565b610858565b6040516100f79a99989796959493929190613882565b3480156101ea57600080fd5b5061019b610bd2565b3480156101ff57600080fd5b5061014261020e36600461310f565b610ece565b34801561021f57600080fd5b50610228610f7b565b6040516100f79190613767565b34801561024157600080fd5b506101426102503660046131c1565b610f7f565b34801561026157600080fd5b50610159610270366004613063565b6110b8565b34801561028157600080fd5b50610295610290366004613089565b61129a565b6040516100f7919061383b565b6102aa612be9565b6102b2612c46565b826103bb6003826040518082805190602001908083835b602083106102e85780518252601f1990920191602091820191016102c9565b518151600019602094850361010090810a8201928316921993909316919091179092529490920196875260408051978890038201882060019081018054601f600293821615909802909501909416049485018290048202880182019052838752909450919250508301828280156103a05780601f10610375576101008083540402835291602001916103a0565b820191906000526020600020905b81548152906001019060200180831161038357829003601f168201915b50505050506020604051908101604052806000815250611307565b156103e45760405160e560020a62461bcd0281526004016103db9061380b565b60405180910390fd5b6103ed846113ef565b9250925050915091565b60606002805480602002602001604051908101604052809291908181526020016000905b828210156105315760008481526020908190206040805160a081018252600586029092018054600160a060020a039081168452600180830154909116848601526002808301805485516101009482161594909402600019011691909104601f81018790048702830187018552808352949592949386019391929091908301828280156104e85780601f106104bd576101008083540402835291602001916104e8565b820191906000526020600020905b8154815290600101906020018083116104cb57829003601f168201915b505050918352505060038201546020820152600482015460409091019060ff16600281111561051357fe5b600281111561051e57fe5b815250508152602001906001019061041b565b5050505090505b90565b3360009081526020819052604090206003015460ff1615156105725760405160e560020a62461bcd0281526004016103db9061381b565b61057d838383611829565b505050565b61058a612c58565b3360009081526020819052604090206003015460ff1615156105c15760405160e560020a62461bcd0281526004016103db9061381b565b3360009081526020819052604090819020815160a081019092528054829060ff1660048111156105ed57fe5b60048111156105f857fe5b8152815461010090819004600160a060020a031660208084019190915260018085018054604080516002948316159096026000190190911692909204601f8101849004840285018401835280855291909401939183018282801561069d5780601f106106725761010080835404028352916020019161069d565b820191906000526020600020905b81548152906001019060200180831161068057829003601f168201915b5050509183525050600282810180546040805160206001841615610100026000190190931694909404601f8101839004830285018301909152808452938101939083018282801561072f5780601f106107045761010080835404028352916020019161072f565b820191906000526020600020905b81548152906001019060200180831161071257829003601f168201915b50505091835250506003919091015460ff161515602090910152905090565b3360009081526020819052604090206003015460ff1615156107855760405160e560020a62461bcd0281526004016103db9061381b565b600233151561079357600080fd5b336000908152602081905260409020546101009004600160a060020a0316158015906107e657508060048111156107c657fe5b3360009081526020819052604090205460ff1660048111156107e457fe5b145b15156108075760405160e560020a62461bcd0281526004016103db906137cb565b61057d8383611d8e565b3360009081526020819052604090206003015460609060ff16151561084b5760405160e560020a62461bcd0281526004016103db9061381b565b610853611f68565b905090565b6000606060006060806060600080600080610871612be9565b60038c6040518082805190602001908083835b602083106108a35780518252601f199092019160209182019101610884565b518151602093840361010090810a6000199081018019909416939092169290921790925292909401968752604080519788900382018820610140890182528054895260018082018054845160029382161590970290980190971604601f8101849004840285018401909252818452965087820195509193925083018282801561096d5780601f106109425761010080835404028352916020019161096d565b820191906000526020600020905b81548152906001019060200180831161095057829003601f168201915b5050509183525050600282810154600160a060020a031660208084019190915260038401805460408051601f60001960018516156101000201909316959095049182018490048402850184018152818552909401939091830182828015610a155780601f106109ea57610100808354040283529160200191610a15565b820191906000526020600020905b8154815290600101906020018083116109f857829003601f168201915b505050918352505060048201805460408051602060026001851615610100026000190190941693909304601f8101849004840282018401909252818152938201939291830182828015610aa95780601f10610a7e57610100808354040283529160200191610aa9565b820191906000526020600020905b815481529060010190602001808311610a8c57829003601f168201915b505050918352505060058201805460408051602060026001851615610100026000190190941693909304601f8101849004840282018401909252818152938201939291830182828015610b3d5780601f10610b1257610100808354040283529160200191610b3d565b820191906000526020600020905b815481529060010190602001808311610b2057829003601f168201915b505050505081526020016006820154815260200160078201548152602001600882015481526020016009820154815250509050806000015181602001518260400151836060015184608001518560a001518660c001518760e001518861010001518961012001518898508696508595508494509a509a509a509a509a509a509a509a509a509a50509193959799509193959799565b60606001805480602002602001604051908101604052809291908181526020016000905b8282101561053157838290600052602060002090600a0201610140604051908101604052908160008201548152602001600182018054600181600116156101000203166002900480601f016020809104026020016040519081016040528092919081815260200182805460018160011615610100020316600290048015610cbe5780601f10610c9357610100808354040283529160200191610cbe565b820191906000526020600020905b815481529060010190602001808311610ca157829003601f168201915b5050509183525050600282810154600160a060020a031660208084019190915260038401805460408051601f60001960018516156101000201909316959095049182018490048402850184018152818552909401939091830182828015610d665780601f10610d3b57610100808354040283529160200191610d66565b820191906000526020600020905b815481529060010190602001808311610d4957829003601f168201915b505050918352505060048201805460408051602060026001851615610100026000190190941693909304601f8101849004840282018401909252818152938201939291830182828015610dfa5780601f10610dcf57610100808354040283529160200191610dfa565b820191906000526020600020905b815481529060010190602001808311610ddd57829003601f168201915b505050918352505060058201805460408051602060026001851615610100026000190190941693909304601f8101849004840282018401909252818152938201939291830182828015610e8e5780601f10610e6357610100808354040283529160200191610e8e565b820191906000526020600020905b815481529060010190602001808311610e7157829003601f168201915b5050505050815260200160068201548152602001600782015481526020016008820154815260200160098201548152505081526020019060010190610bf6565b3360009081526020819052604090206003015460ff161515610f055760405160e560020a62461bcd0281526004016103db9061381b565b60013360009081526020819052604090205460ff166004811115610f2557fe5b1480610f4c57503360009081526020819052604081205460ff166004811115610f4a57fe5b145b1515610f6d5760405160e560020a62461bcd0281526004016103db9061382b565b610f7782826123cb565b5050565b3390565b610f9181600001518260200151612862565b15610fb15760405160e560020a62461bcd0281526004016103db906137fb565b602080820151600160a060020a0316600090815290819052604090208151815483929190829060ff19166001836004811115610fe957fe5b02179055506020828101518254600160a060020a039091166101000274ffffffffffffffffffffffffffffffffffffffff0019909116178255604083015180516110399260018501920190612c87565b5060608201518051611055916002840191602090910190612c87565b50608091909101516003909101805460ff19169115159190911790556040818101516060830151835192517f71d9dffdac919adfd06ab94bdebcd997efa2ba73e829a41e63107c7f8ae330f6936110ad939291613797565b60405180910390a150565b6110c0612c58565b600160a060020a038216600090815260208190526040902060030154829060ff1615156111025760405160e560020a62461bcd0281526004016103db9061381b565b600160a060020a03831660009081526020819052604090819020815160a081019092528054829060ff16600481111561113757fe5b600481111561114257fe5b8152815461010090819004600160a060020a031660208084019190915260018085018054604080516002948316159096026000190190911692909204601f810184900484028501840183528085529190940193918301828280156111e75780601f106111bc576101008083540402835291602001916111e7565b820191906000526020600020905b8154815290600101906020018083116111ca57829003601f168201915b5050509183525050600282810180546040805160206001841615610100026000190190931694909404601f810183900483028501830190915280845293810193908301828280156112795780601f1061124e57610100808354040283529160200191611279565b820191906000526020600020905b81548152906001019060200180831161125c57829003601f168201915b50505091835250506003919091015460ff1615156020909101529392505050565b6112a2612be9565b816112d7600382604051808280519060200190808383602083106102e85780518252601f1990920191602091820191016102c9565b156112f75760405160e560020a62461bcd0281526004016103db9061380b565b611300836128dd565b9392505050565b6000816040516020018082805190602001908083835b6020831061133c5780518252601f19909201916020918201910161131d565b6001836020036101000a03801982511681845116808217855250505050505090500191505060405160208183030381529060405280519060200120836040516020018082805190602001908083835b602083106113aa5780518252601f19909201916020918201910161138b565b6001836020036101000a038019825116818451168082178552505050505050905001915050604051602081830303815290604052805190602001201490505b92915050565b6113f7612be9565b6113ff612c46565b6003836040518082805190602001908083835b602083106114315780518252601f199092019160209182019101611412565b51815160209384036101000a600019018019909216911617905292019485525060405193849003810184208751909460059450889350918291908401908083835b602083106114915780518252601f199092019160209182019101611472565b518151602093840361010090810a600019908101801990941693909216929092179092529290940196875260408051978890038201882061014089018252895489526001808b018054845160029382161590970290980190971604601f8101849004840285018401909252818452979650889550868201949293509083018282801561155e5780601f106115335761010080835404028352916020019161155e565b820191906000526020600020905b81548152906001019060200180831161154157829003601f168201915b5050509183525050600282810154600160a060020a031660208084019190915260038401805460408051601f600019600185161561010002019093169590950491820184900484028501840181528185529094019390918301828280156116065780601f106115db57610100808354040283529160200191611606565b820191906000526020600020905b8154815290600101906020018083116115e957829003601f168201915b505050918352505060048201805460408051602060026001851615610100026000190190941693909304601f810184900484028201840190925281815293820193929183018282801561169a5780601f1061166f5761010080835404028352916020019161169a565b820191906000526020600020905b81548152906001019060200180831161167d57829003601f168201915b505050918352505060058201805460408051602060026001851615610100026000190190941693909304601f810184900484028201840190925281815293820193929183018282801561172e5780601f106117035761010080835404028352916020019161172e565b820191906000526020600020905b81548152906001019060200180831161171157829003601f168201915b505050505081526020016006820154815260200160078201548152602001600882015481526020016009820154815250509150806020604051908101604052908160008201805480602002602001604051908101604052809291908181526020016000905b8282101561181757600084815260209081902060408051608081018252600486029092018054600160a060020a03168352600181015493830193909352600280840154918301919091526003830154919291606084019160ff909116908111156117f957fe5b600281111561180457fe5b8152505081526020019060010190611793565b50505091525092945092505050915091565b8161185e600382604051808280519060200190808383602083106102e85780518252601f1990920191602091820191016102c9565b1561187e5760405160e560020a62461bcd0281526004016103db9061380b565b600280546001810180835560009290925285517f405787fa12a823e0f2b7631cc41b3ba8828b3321ca811111fa75cd3aa3bb5ace6005909202918201805473ffffffffffffffffffffffffffffffffffffffff19908116600160a060020a039384161782556020808a01517f405787fa12a823e0f2b7631cc41b3ba8828b3321ca811111fa75cd3aa3bb5acf8601805490931694169390931790556040880151805189949293611952937f405787fa12a823e0f2b7631cc41b3ba8828b3321ca811111fa75cd3aa3bb5ad001920190612c87565b5060608201516003820155608082015160048201805460ff1916600183600281111561197a57fe5b021790555050505061198a612be9565b6003846040518082805190602001908083835b602083106119bc5780518252601f19909201916020918201910161199d565b518151602093840361010090810a6000199081018019909416939092169290921790925292909401968752604080519788900382018820610140890182528054895260018082018054845160029382161590970290980190971604601f81018490048402850184019092528184529650878201955091939250830182828015611a865780601f10611a5b57610100808354040283529160200191611a86565b820191906000526020600020905b815481529060010190602001808311611a6957829003601f168201915b5050509183525050600282810154600160a060020a031660208084019190915260038401805460408051601f60001960018516156101000201909316959095049182018490048402850184018152818552909401939091830182828015611b2e5780601f10611b0357610100808354040283529160200191611b2e565b820191906000526020600020905b815481529060010190602001808311611b1157829003601f168201915b505050918352505060048201805460408051602060026001851615610100026000190190941693909304601f8101849004840282018401909252818152938201939291830182828015611bc25780601f10611b9757610100808354040283529160200191611bc2565b820191906000526020600020905b815481529060010190602001808311611ba557829003601f168201915b505050918352505060058201805460408051602060026001851615610100026000190190941693909304601f8101849004840282018401909252818152938201939291830182828015611c565780601f10611c2b57610100808354040283529160200191611c56565b820191906000526020600020905b815481529060010190602001808311611c3957829003601f168201915b505050505081526020016006820154815260200160078201548152602001600882015481526020016009820154815250509050600581602001516040518082805190602001908083835b60208310611cbf5780518252601f199092019160209182019101611ca0565b51815160209384036101000a600019018019909216911617905292019485525060408051948590038201852060808601825233865285830189815260009287018381526001606089018181528454808301808755958752969095208951600490970201805473ffffffffffffffffffffffffffffffffffffffff1916600160a060020a0390971696909617865591518583015551600280860191909155925160038501805493989750949550939260ff19909216918490811115611d7f57fe5b02179055505050505050505050565b81611dc3600382604051808280519060200190808383602083106102e85780518252601f1990920191602091820191016102c9565b15611de35760405160e560020a62461bcd0281526004016103db9061380b565b60006003846040518082805190602001908083835b60208310611e175780518252601f199092019160209182019101611df8565b51815160209384036101000a600019018019909216911617905292019485525060405193849003019092209250611e509150612d059050565b6040805160808101825233815242602082015290810185905260608101600281525090506005826001016040518082805460018160011615610100020316600290048015611ed55780601f10611eb3576101008083540402835291820191611ed5565b820191906000526020600020905b815481529060010190602001808311611ec1575b505092835250506040805160209281900383019020805460018082018084556000938452928590208651600490930201805473ffffffffffffffffffffffffffffffffffffffff1916600160a060020a03909316929092178255938501518185015591840151600280840191909155606085015160038401805493958795949293919260ff1916918490811115611d7f57fe5b3360009081526004602090815260408083208054825181850281018501909352808352606094859484015b8282101561203e5760008481526020908190208301805460408051601f600260001961010060018716150201909416939093049283018590048502810185019091528181529283018282801561202a5780601f10611fff5761010080835404028352916020019161202a565b820191906000526020600020905b81548152906001019060200180831161200d57829003601f168201915b505050505081526020019060010190611f93565b5050505090506060815160405190808252806020026020018201604052801561208157816020015b61206e612be9565b8152602001906001900390816120665790505b50905060005b82518110156123c457600383828151811015156120a057fe5b906020019060200201516040518082805190602001908083835b602083106120d95780518252601f1990920191602091820191016120ba565b518151602093840361010090810a6000199081018019909416939092169290921790925292909401968752604080519788900382018820610140890182528054895260018082018054845160029382161590970290980190971604601f810184900484028501840190925281845296508782019550919392508301828280156121a35780601f10612178576101008083540402835291602001916121a3565b820191906000526020600020905b81548152906001019060200180831161218657829003601f168201915b5050509183525050600282810154600160a060020a031660208084019190915260038401805460408051601f6000196001851615610100020190931695909504918201849004840285018401815281855290940193909183018282801561224b5780601f106122205761010080835404028352916020019161224b565b820191906000526020600020905b81548152906001019060200180831161222e57829003601f168201915b505050918352505060048201805460408051602060026001851615610100026000190190941693909304601f81018490048402820184019092528181529382019392918301828280156122df5780601f106122b4576101008083540402835291602001916122df565b820191906000526020600020905b8154815290600101906020018083116122c257829003601f168201915b505050918352505060058201805460408051602060026001851615610100026000190190941693909304601f81018490048402820184019092528181529382019392918301828280156123735780601f1061234857610100808354040283529160200191612373565b820191906000526020600020905b81548152906001019060200180831161235657829003601f168201915b5050505050815260200160068201548152602001600782015481526020016008820154815260200160098201548152505082828151811015156123b257fe5b60209081029091010152600101612087565b5091505090565b8160200151612404600382604051808280519060200190808383602083106102e85780518252601f1990920191602091820191016102c9565b15156124255760405160e560020a62461bcd0281526004016103db906137eb565b6040830151600160a060020a031633146124545760405160e560020a62461bcd0281526004016103db906137db565b600180548082018083556000929092528451600a9091027fb10e2d527612073b26eecdfd717e6a320cf44b4afac2b0732d9fcbe2b7fa0cf6810191825560208087015180518894936124cc937fb10e2d527612073b26eecdfd717e6a320cf44b4afac2b0732d9fcbe2b7fa0cf7909101920190612c87565b50604082015160028201805473ffffffffffffffffffffffffffffffffffffffff1916600160a060020a039092169190911790556060820151805161251b916003840191602090910190612c87565b5060808201518051612537916004840191602090910190612c87565b5060a08201518051612553916005840191602090910190612c87565b5060c0820151816006015560e082015181600701556101008201518160080155610120820151816009015550505082600384602001516040518082805190602001908083835b602083106125b85780518252601f199092019160209182019101612599565b51815160209384036101000a600019018019909216911617905292019485525060405193849003810190932084518155848401518051919461260294506001860193500190612c87565b50604082015160028201805473ffffffffffffffffffffffffffffffffffffffff1916600160a060020a0390921691909117905560608201518051612651916003840191602090910190612c87565b506080820151805161266d916004840191602090910190612c87565b5060a08201518051612689916005840191602090910190612c87565b5060c0820151816006015560e0820151816007015561010082015181600801556101208201518160090155905050600583602001516040518082805190602001908083835b602083106126ed5780518252601f1990920191602091820191016126ce565b51815160209384036101000a600019018019909216911617905292019485525060408051948590038201852060808601825233865285830188815260009287018381526060880184815283546001808201808755958752969095208951600490960201805473ffffffffffffffffffffffffffffffffffffffff1916600160a060020a03909616959095178555915184860155516002808501919091559051600384018054939897509395509360ff19909216919084908111156127ad57fe5b0217905550503360009081526004602090815260408220878201518154600181018084559285529383902081519296506127ef95509093019290910190612c87565b50507fadad6db1d679a6c001629a71751b484c6ce3cc054bb9ade7a55e3336504ec7e8836000015184602001518560400151866060015187608001518860a001518960c001518a60e001518b610100015160405161285599989796959493929190613933565b60405180910390a1505050565b6000600160a060020a038216151561287957600080fd5b600160a060020a038281166000908152602081905260409020546101009004161580159061130057508260048111156128ae57fe5b600160a060020a03831660009081526020819052604090205460ff1660048111156128d557fe5b149392505050565b6128e5612be9565b6003826040518082805190602001908083835b602083106129175780518252601f1990920191602091820191016128f8565b518151602093840361010090810a6000199081018019909416939092169290921790925292909401968752604080519788900382018820610140890182528054895260018082018054845160029382161590970290980190971604601f810184900484028501840190925281845296508782019550919392508301828280156129e15780601f106129b6576101008083540402835291602001916129e1565b820191906000526020600020905b8154815290600101906020018083116129c457829003601f168201915b5050509183525050600282810154600160a060020a031660208084019190915260038401805460408051601f60001960018516156101000201909316959095049182018490048402850184018152818552909401939091830182828015612a895780601f10612a5e57610100808354040283529160200191612a89565b820191906000526020600020905b815481529060010190602001808311612a6c57829003601f168201915b505050918352505060048201805460408051602060026001851615610100026000190190941693909304601f8101849004840282018401909252818152938201939291830182828015612b1d5780601f10612af257610100808354040283529160200191612b1d565b820191906000526020600020905b815481529060010190602001808311612b0057829003601f168201915b505050918352505060058201805460408051602060026001851615610100026000190190941693909304601f8101849004840282018401909252818152938201939291830182828015612bb15780601f10612b8657610100808354040283529160200191612bb1565b820191906000526020600020905b815481529060010190602001808311612b9457829003601f168201915b505050505081526020016006820154815260200160078201548152602001600882015481526020016009820154815250509050919050565b6101406040519081016040528060008152602001606081526020016000600160a060020a03168152602001606081526020016060815260200160608152602001600081526020016000815260200160008152602001600081525090565b60408051602081019091526060815290565b6040805160a0810190915280600081526000602082018190526060604083018190528083015260809091015290565b828054600181600116156101000203166002900490600052602060002090601f016020900481019282601f10612cc857805160ff1916838001178555612cf5565b82800160010185558215612cf5579182015b82811115612cf5578251825591602001919060010190612cda565b50612d01929150612d2a565b5090565b6040805160808101825260008082526020820181905291810182905290606082015290565b61053891905b80821115612d015760008155600101612d30565b60006113008235613a2e565b60006113008235613a39565b60006113008235613a62565b60006113008235613a71565b6000601f82018313612d8557600080fd5b8135612d98612d93826139fc565b6139d5565b91508082526020830160208301858383011115612db457600080fd5b612dbf838284613a96565b50505092915050565b60006101408284031215612ddb57600080fd5b612de66101406139d5565b90506000612df48484613057565b825250602082013567ffffffffffffffff811115612e1157600080fd5b612e1d84828501612d74565b6020830152506040612e3184828501612d44565b604083015250606082013567ffffffffffffffff811115612e5157600080fd5b612e5d84828501612d74565b606083015250608082013567ffffffffffffffff811115612e7d57600080fd5b612e8984828501612d74565b60808301525060a082013567ffffffffffffffff811115612ea957600080fd5b612eb584828501612d74565b60a08301525060c0612ec984828501613057565b60c08301525060e0612edd84828501613057565b60e083015250610100612ef284828501613057565b61010083015250610120612f0884828501613057565b6101208301525092915050565b600060a08284031215612f2757600080fd5b612f3160a06139d5565b90506000612f3f8484612d44565b8252506020612f5084848301612d44565b602083015250604082013567ffffffffffffffff811115612f7057600080fd5b612f7c84828501612d74565b6040830152506060612f9084828501613057565b6060830152506080612fa484828501612d5c565b60808301525092915050565b600060a08284031215612fc257600080fd5b612fcc60a06139d5565b90506000612fda8484612d68565b8252506020612feb84848301612d44565b602083015250604082013567ffffffffffffffff81111561300b57600080fd5b61301784828501612d74565b604083015250606082013567ffffffffffffffff81111561303757600080fd5b61304384828501612d74565b6060830152506080612fa484828501612d50565b60006113008235610538565b60006020828403121561307557600080fd5b60006130818484612d44565b949350505050565b60006020828403121561309b57600080fd5b813567ffffffffffffffff8111156130b257600080fd5b61308184828501612d74565b600080604083850312156130d157600080fd5b823567ffffffffffffffff8111156130e857600080fd5b6130f485828601612d74565b925050602061310585828601613057565b9150509250929050565b6000806040838503121561312257600080fd5b823567ffffffffffffffff81111561313957600080fd5b6130f485828601612dc8565b60008060006060848603121561315a57600080fd5b833567ffffffffffffffff81111561317157600080fd5b61317d86828701612f15565b935050602084013567ffffffffffffffff81111561319a57600080fd5b6131a686828701612d74565b92505060406131b786828701613057565b9150509250925092565b6000602082840312156131d357600080fd5b813567ffffffffffffffff8111156131ea57600080fd5b61308184828501612fb0565b6131ff81613a2e565b82525050565b600061321082613a2a565b8084526020840193508360208202850161322985613a24565b60005b84811015613260578383038852613244838351613551565b925061324f82613a24565b60209890980197915060010161322c565b50909695505050505050565b600061327782613a2a565b8084526020840193508360208202850161329085613a24565b60005b848110156132605783830388526132ab838351613639565b92506132b682613a24565b602098909801979150600101613293565b60006132d282613a2a565b8084526020840193506132e483613a24565b60005b82811015613314576132fa86835161370e565b61330382613a24565b6080969096019591506001016132e7565b5093949350505050565b6131ff81613a39565b6131ff81613a80565b6131ff81613a8b565b600061334482613a2a565b808452613358816020860160208601613aa2565b61336181613ace565b9093016020019392505050565b602181527f556e617574686f72697a65642c206e6f7420612064617461626173652075736560208201527f7200000000000000000000000000000000000000000000000000000000000000604082015260600190565b602481527f4f6e6c7920757365722063616e2061646420697473206f776e2075736572277360208201527f206c6f7400000000000000000000000000000000000000000000000000000000604082015260600190565b601781527f6c6f7420646f657320616c726561647920657869737473000000000000000000602082015260400190565b602c81527f53746573736f207574656e746520636f6e2073746573736f2072756f6c6f206760208201527f6961206573697374656e74650000000000000000000000000000000000000000604082015260600190565b601381527f6c6f7420646f6573206e6f742065786973747300000000000000000000000000602082015260400190565b601381527f5573657220646f6573206e6f7420657869737400000000000000000000000000602082015260400190565b601881527f53656e646572206973206e6f7420617574686f72697a65640000000000000000602082015260400190565b805160208084526000919084019061354882826132c7565b95945050505050565b8051600090610140840190613566858261375e565b506020830151848203602086015261357e8282613339565b915050604083015161359360408601826131f6565b50606083015184820360608601526135ab8282613339565b915050608083015184820360808601526135c58282613339565b91505060a083015184820360a08601526135df8282613339565b91505060c08301516135f460c086018261375e565b5060e083015161360760e086018261375e565b5061010083015161361c61010086018261375e565b5061012083015161363161012086018261375e565b509392505050565b805160009060a084019061364d85826131f6565b50602083015161366060208601826131f6565b50604083015184820360408601526136788282613339565b915050606083015161368d606086018261375e565b5060808301516136316080860182613327565b805160009060a08401906136b48582613330565b5060208301516136c760208601826131f6565b50604083015184820360408601526136df8282613339565b915050606083015184820360608601526136f98282613339565b9150506080830151613631608086018261331e565b8051608083019061371f84826131f6565b506020820151613732602085018261375e565b506040820151613745604085018261375e565b5060608201516137586060850182613327565b50505050565b6131ff81610538565b602081016113e982846131f6565b602080825281016113008184613205565b60208082528101611300818461326c565b606080825281016137a88186613339565b905081810360208301526137bc8185613339565b90506130816040830184613330565b602080825281016113e98161336e565b602080825281016113e9816133c4565b602080825281016113e98161341a565b602080825281016113e98161344a565b602080825281016113e9816134a0565b602080825281016113e9816134d0565b602080825281016113e981613500565b602080825281016113008184613551565b6040808252810161385d8185613551565b905081810360208301526130818184613530565b6020808252810161130081846136a0565b6101408101613891828d61375e565b81810360208301526138a3818c613339565b90506138b2604083018b6131f6565b81810360608301526138c4818a613339565b905081810360808301526138d88189613339565b905081810360a08301526138ec8188613339565b90506138fb60c083018761375e565b61390860e083018661375e565b61391661010083018561375e565b61392461012083018461375e565b9b9a5050505050505050505050565b6101208101613942828c61375e565b8181036020830152613954818b613339565b9050613963604083018a6131f6565b81810360608301526139758189613339565b905081810360808301526139898188613339565b905081810360a083015261399d8187613339565b90506139ac60c083018661375e565b6139b960e083018561375e565b6139c761010083018461375e565b9a9950505050505050505050565b60405181810167ffffffffffffffff811182821017156139f457600080fd5b604052919050565b600067ffffffffffffffff821115613a1357600080fd5b506020601f91909101601f19160190565b60200190565b5190565b60006113e982613a56565b151590565b600060038210612d0157fe5b600060058210612d0157fe5b600160a060020a031690565b600060038210612d0157600080fd5b600060058210612d0157600080fd5b60006113e982613a3e565b60006113e982613a4a565b82818337506000910152565b60005b83811015613abd578181015183820152602001613aa5565b838111156137585750506000910152565b601f01601f19169056fea265627a7a723058200dac6e1ad10b5ad185d37e1cd0ad628fac14bf9f2681081e8df616cd0c0b9ab56c6578706572696d656e74616cf50037",
  "source": "// SPDX-License-Identifier: GPL-3.0\npragma experimental ABIEncoderV2;\npragma solidity >=0.4.25 <0.9.0;\n\nimport \"./Lots.sol\";\nimport \"./Users.sol\";\nimport \"./oss.sol\";\nimport \"./sms.sol\";\ncontract SupplyChain is Users, Lots, oss, sms {\n\n      function getOwnableLot(string memory barcode) public view returns (uint256,string memory, address, string memory,string memory,string memory,uint256,uint256,uint256,uint256){\n    Types.Lot memory o = lot[barcode];\n    return (o.id_lot, o.barcodeId, o.lot_user_addr, o.source, o.variety, o.quality, o.temprature, o.humidity, o.date, o.stockdate);\n  }\n    \n    \n    \n    \n    \n    \n    \n    \n    \n    \n    \n    function addLot(Types.Lot memory lot_, uint256 currentTime_)\n        public\n        userExists\n        onlyManufacturers\n    {\n\n        addALot(lot_, currentTime_);\n    }\n    \n    \n    function addTransaction(Types.Transaction memory transaction_,string memory barcodeId_, uint256 currentTime_)\n        public\n        userExists\n    {\n        add_transaction(transaction_, barcodeId_, currentTime_);\n    }\n\n        function updateStockdate(string memory barcodeId_, uint256 newStockDate)\n        public\n        userExists\n        hasRole(Types.UserRole.database)\n    {\n        update_StockDate(barcodeId_, newStockDate);\n    }\n\n    function getAllTransactions() public view returns (Types.Transaction[] memory) {\n        return transactions;\n    }\n\n    function getAllLots() public view returns (Types.Lot[] memory) {\n        return lots;\n    }\n\n    function getMyAddress() public view  returns (address) {\n        return msg.sender;\n    }\n\n        function getMyLots() public view userExists returns (Types.Lot[] memory) {\n        return getUserLots();\n    }\n\n        function getSingleLot(string memory barcodeId_)\n        public\n        view\n        LotExists(barcodeId_)\n        returns (Types.Lot memory)\n    {\n        return getSpecificLot(barcodeId_);\n    }\n\n    function getSingleLotHistory(string memory barcodeId_)\n        public\n        view\n        LotExists(barcodeId_)\n        returns (Types.Lot memory, Types.LotHistory memory)\n    {\n        return getSpecificLotHistory(barcodeId_);\n    }\n\n    function getUserDetails(address id_)\n        public\n        view\n        otherUserExists(id_)\n        returns (Types.UserDetails memory)\n    {\n        return users[id_];\n    }\n\n    function getMyDetails() public view userExists returns (Types.UserDetails memory) {\n        return users[msg.sender];\n    }\n    \n}\n",
  "sourcePath": "/home/simo/sc/supplychain2/contracts/SupplyChain.sol",
  "compiler": {
    "name": "solc",
    "version": "0.5.0+commit.1d4f565a.Emscripten.clang"
  },
  "schemaVersion": "3.0.1",
  "updatedAt": "2023-12-23T20:42:09.941Z",
  "devdoc": {
    "methods": {}
  },
  "userdoc": {
    "methods": {}
  }
}