{
  "contractName": "SupplyChain",
  "abi": [
    {
      "constant": false,
      "inputs": [
        {
          "components": [
            {
              "name": "role",
              "type": "uint8"
            },
            {
              "name": "id_",
              "type": "address"
            },
            {
              "name": "name",
              "type": "string"
            },
            {
              "name": "email",
              "type": "string"
            },
            {
              "name": "isValue",
              "type": "bool"
            }
          ],
          "name": "user",
          "type": "tuple"
        }
      ],
      "name": "addUser",
      "outputs": [],
      "payable": false,
      "stateMutability": "nonpayable",
      "type": "function",
      "signature": "0xb935dc37"
    },
    {
      "anonymous": false,
      "inputs": [
        {
          "indexed": false,
          "name": "id_lot",
          "type": "uint256"
        },
        {
          "indexed": false,
          "name": "barcodeId",
          "type": "string"
        },
        {
          "indexed": false,
          "name": "lot_user_addr",
          "type": "address"
        },
        {
          "indexed": false,
          "name": "source",
          "type": "string"
        },
        {
          "indexed": false,
          "name": "variety",
          "type": "string"
        },
        {
          "indexed": false,
          "name": "quality",
          "type": "string"
        },
        {
          "indexed": false,
          "name": "temprature",
          "type": "uint256"
        },
        {
          "indexed": false,
          "name": "humidity",
          "type": "uint256"
        },
        {
          "indexed": false,
          "name": "date",
          "type": "uint256"
        }
      ],
      "name": "NewLot",
      "type": "event",
      "signature": "0xadad6db1d679a6c001629a71751b484c6ce3cc054bb9ade7a55e3336504ec7e8"
    },
    {
      "anonymous": false,
      "inputs": [
        {
          "indexed": false,
          "name": "name",
          "type": "string"
        },
        {
          "indexed": false,
          "name": "email",
          "type": "string"
        },
        {
          "indexed": false,
          "name": "role",
          "type": "uint8"
        }
      ],
      "name": "NewUser",
      "type": "event",
      "signature": "0x71d9dffdac919adfd06ab94bdebcd997efa2ba73e829a41e63107c7f8ae330f6"
    },
    {
      "anonymous": false,
      "inputs": [
        {
          "indexed": false,
          "name": "name",
          "type": "string"
        },
        {
          "indexed": false,
          "name": "email",
          "type": "string"
        },
        {
          "indexed": false,
          "name": "role",
          "type": "uint8"
        }
      ],
      "name": "LostUser",
      "type": "event",
      "signature": "0xb918a61d17a424319d1b79318e497219d4dcd8818cb165287ba99466d1163772"
    },
    {
      "constant": false,
      "inputs": [
        {
          "components": [
            {
              "name": "id_lot",
              "type": "uint256"
            },
            {
              "name": "barcodeId",
              "type": "string"
            },
            {
              "name": "lot_user_addr",
              "type": "address"
            },
            {
              "name": "source",
              "type": "string"
            },
            {
              "name": "variety",
              "type": "string"
            },
            {
              "name": "quality",
              "type": "string"
            },
            {
              "name": "temprature",
              "type": "uint256"
            },
            {
              "name": "humidity",
              "type": "uint256"
            },
            {
              "name": "date",
              "type": "uint256"
            },
            {
              "name": "stockdate",
              "type": "uint256"
            }
          ],
          "name": "lot_",
          "type": "tuple"
        },
        {
          "name": "currentTime_",
          "type": "uint256"
        }
      ],
      "name": "addLot",
      "outputs": [],
      "payable": false,
      "stateMutability": "nonpayable",
      "type": "function",
      "signature": "0x92c5da5d"
    },
    {
      "constant": false,
      "inputs": [
        {
          "components": [
            {
              "name": "buyer",
              "type": "address"
            },
            {
              "name": "receiver",
              "type": "address"
            },
            {
              "name": "currentdate",
              "type": "string"
            },
            {
              "name": "price",
              "type": "uint256"
            },
            {
              "name": "type_",
              "type": "uint8"
            }
          ],
          "name": "transaction_",
          "type": "tuple"
        },
        {
          "name": "barcodeId_",
          "type": "string"
        },
        {
          "name": "currentTime_",
          "type": "uint256"
        }
      ],
      "name": "addTransaction",
      "outputs": [],
      "payable": false,
      "stateMutability": "nonpayable",
      "type": "function",
      "signature": "0x32f3adf5"
    },
    {
      "constant": false,
      "inputs": [
        {
          "name": "barcodeId_",
          "type": "string"
        },
        {
          "name": "newStockDate",
          "type": "uint256"
        }
      ],
      "name": "updateStockdate",
      "outputs": [],
      "payable": false,
      "stateMutability": "nonpayable",
      "type": "function",
      "signature": "0x5a3d3a6f"
    },
    {
      "constant": true,
      "inputs": [],
      "name": "getAllTransactions",
      "outputs": [
        {
          "components": [
            {
              "name": "buyer",
              "type": "address"
            },
            {
              "name": "receiver",
              "type": "address"
            },
            {
              "name": "currentdate",
              "type": "string"
            },
            {
              "name": "price",
              "type": "uint256"
            },
            {
              "name": "type_",
              "type": "uint8"
            }
          ],
          "name": "",
          "type": "tuple[]"
        }
      ],
      "payable": false,
      "stateMutability": "view",
      "type": "function",
      "signature": "0x27506f53"
    },
    {
      "constant": true,
      "inputs": [],
      "name": "getAllLots",
      "outputs": [
        {
          "components": [
            {
              "name": "id_lot",
              "type": "uint256"
            },
            {
              "name": "barcodeId",
              "type": "string"
            },
            {
              "name": "lot_user_addr",
              "type": "address"
            },
            {
              "name": "source",
              "type": "string"
            },
            {
              "name": "variety",
              "type": "string"
            },
            {
              "name": "quality",
              "type": "string"
            },
            {
              "name": "temprature",
              "type": "uint256"
            },
            {
              "name": "humidity",
              "type": "uint256"
            },
            {
              "name": "date",
              "type": "uint256"
            },
            {
              "name": "stockdate",
              "type": "uint256"
            }
          ],
          "name": "",
          "type": "tuple[]"
        }
      ],
      "payable": false,
      "stateMutability": "view",
      "type": "function",
      "signature": "0x8e3bea6f"
    },
    {
      "constant": true,
      "inputs": [],
      "name": "getMyAddress",
      "outputs": [
        {
          "name": "",
          "type": "address"
        }
      ],
      "payable": false,
      "stateMutability": "view",
      "type": "function",
      "signature": "0x9a166299"
    },
    {
      "constant": true,
      "inputs": [],
      "name": "getMyLots",
      "outputs": [
        {
          "components": [
            {
              "name": "id_lot",
              "type": "uint256"
            },
            {
              "name": "barcodeId",
              "type": "string"
            },
            {
              "name": "lot_user_addr",
              "type": "address"
            },
            {
              "name": "source",
              "type": "string"
            },
            {
              "name": "variety",
              "type": "string"
            },
            {
              "name": "quality",
              "type": "string"
            },
            {
              "name": "temprature",
              "type": "uint256"
            },
            {
              "name": "humidity",
              "type": "uint256"
            },
            {
              "name": "date",
              "type": "uint256"
            },
            {
              "name": "stockdate",
              "type": "uint256"
            }
          ],
          "name": "",
          "type": "tuple[]"
        }
      ],
      "payable": false,
      "stateMutability": "view",
      "type": "function",
      "signature": "0x612fc906"
    },
    {
      "constant": true,
      "inputs": [
        {
          "name": "barcodeId_",
          "type": "string"
        }
      ],
      "name": "getSingleLot",
      "outputs": [
        {
          "components": [
            {
              "name": "id_lot",
              "type": "uint256"
            },
            {
              "name": "barcodeId",
              "type": "string"
            },
            {
              "name": "lot_user_addr",
              "type": "address"
            },
            {
              "name": "source",
              "type": "string"
            },
            {
              "name": "variety",
              "type": "string"
            },
            {
              "name": "quality",
              "type": "string"
            },
            {
              "name": "temprature",
              "type": "uint256"
            },
            {
              "name": "humidity",
              "type": "uint256"
            },
            {
              "name": "date",
              "type": "uint256"
            },
            {
              "name": "stockdate",
              "type": "uint256"
            }
          ],
          "name": "",
          "type": "tuple"
        }
      ],
      "payable": false,
      "stateMutability": "view",
      "type": "function",
      "signature": "0xe378e47f"
    },
    {
      "constant": true,
      "inputs": [
        {
          "name": "barcodeId_",
          "type": "string"
        }
      ],
      "name": "getSingleLotHistory",
      "outputs": [
        {
          "components": [
            {
              "name": "id_lot",
              "type": "uint256"
            },
            {
              "name": "barcodeId",
              "type": "string"
            },
            {
              "name": "lot_user_addr",
              "type": "address"
            },
            {
              "name": "source",
              "type": "string"
            },
            {
              "name": "variety",
              "type": "string"
            },
            {
              "name": "quality",
              "type": "string"
            },
            {
              "name": "temprature",
              "type": "uint256"
            },
            {
              "name": "humidity",
              "type": "uint256"
            },
            {
              "name": "date",
              "type": "uint256"
            },
            {
              "name": "stockdate",
              "type": "uint256"
            }
          ],
          "name": "",
          "type": "tuple"
        },
        {
          "components": [
            {
              "components": [
                {
                  "name": "id_",
                  "type": "address"
                },
                {
                  "name": "date",
                  "type": "uint256"
                },
                {
                  "name": "stockdate",
                  "type": "uint256"
                },
                {
                  "name": "action",
                  "type": "uint8"
                }
              ],
              "name": "usershistory",
              "type": "tuple[]"
            }
          ],
          "name": "",
          "type": "tuple"
        }
      ],
      "payable": false,
      "stateMutability": "view",
      "type": "function",
      "signature": "0x26538233"
    },
    {
      "constant": true,
      "inputs": [
        {
          "name": "id_",
          "type": "address"
        }
      ],
      "name": "getUserDetails",
      "outputs": [
        {
          "components": [
            {
              "name": "role",
              "type": "uint8"
            },
            {
              "name": "id_",
              "type": "address"
            },
            {
              "name": "name",
              "type": "string"
            },
            {
              "name": "email",
              "type": "string"
            },
            {
              "name": "isValue",
              "type": "bool"
            }
          ],
          "name": "",
          "type": "tuple"
        }
      ],
      "payable": false,
      "stateMutability": "view",
      "type": "function",
      "signature": "0xcc3d967b"
    },
    {
      "constant": true,
      "inputs": [],
      "name": "getMyDetails",
      "outputs": [
        {
          "components": [
            {
              "name": "role",
              "type": "uint8"
            },
            {
              "name": "id_",
              "type": "address"
            },
            {
              "name": "name",
              "type": "string"
            },
            {
              "name": "email",
              "type": "string"
            },
            {
              "name": "isValue",
              "type": "bool"
            }
          ],
          "name": "",
          "type": "tuple"
        }
      ],
      "payable": false,
      "stateMutability": "view",
      "type": "function",
      "signature": "0x431bbb7e"
    }
  ],
  "bytecode": "0x60806040526200000e62000167565b506040805160a081018252600180825273404bec9172f4c55790e9f2d9dbbdbc5feb4d215c602080840191825284518086018652600381527f496f540000000000000000000000000000000000000000000000000000000000818301528486015284518086018652600f81527f496f54406578616d706c652e636f6d0000000000000000000000000000000000818301526060850152608084018390529051600160a060020a0316600090815290819052929092208151815492938493839160ff1990911690836004811115620000e157fe5b02179055506020828101518254600160a060020a039091166101000261010060a860020a03199091161782556040830151805162000126926001850192019062000196565b50606082015180516200014491600284019160209091019062000196565b50608091909101516003909101805460ff1916911515919091179055506200023b565b6040805160a0810190915280600081526000602082018190526060604083018190528083015260809091015290565b828054600181600116156101000203166002900490600052602060002090601f016020900481019282601f10620001d957805160ff191683800117855562000209565b8280016001018555821562000209579182015b8281111562000209578251825591602001919060010190620001ec565b50620002179291506200021b565b5090565b6200023891905b8082111562000217576000815560010162000222565b90565b6136a6806200024b6000396000f3fe6080604052600436106100b95763ffffffff7c01000000000000000000000000000000000000000000000000000000006000350416632653823381146100be57806327506f53146100f557806332f3adf514610117578063431bbb7e146101395780635a3d3a6f1461015b578063612fc9061461017b5780638e3bea6f1461019d57806392c5da5d146101b25780639a166299146101d2578063b935dc37146101f4578063cc3d967b14610214578063e378e47f14610234575b600080fd5b3480156100ca57600080fd5b506100de6100d9366004612cce565b610261565b6040516100ec929190613491565b60405180910390f35b34801561010157600080fd5b5061010a6103b6565b6040516100ec91906133cb565b34801561012357600080fd5b50610137610132366004612d8a565b6104fa565b005b34801561014557600080fd5b5061014e610541565b6040516100ec91906134b6565b34801561016757600080fd5b50610137610176366004612d03565b61070d565b34801561018757600080fd5b506101906107d0565b6040516100ec91906133ba565b3480156101a957600080fd5b50610190610817565b3480156101be57600080fd5b506101376101cd366004612d54565b610b13565b3480156101de57600080fd5b506101e7610bc0565b6040516100ec91906133ac565b34801561020057600080fd5b5061013761020f366004612e06565b610bc4565b34801561022057600080fd5b5061014e61022f366004612ca8565b610cfd565b34801561024057600080fd5b5061025461024f366004612cce565b610edf565b6040516100ec9190613480565b61026961282e565b61027161288b565b8261037a6003826040518082805190602001908083835b602083106102a75780518252601f199092019160209182019101610288565b518151600019602094850361010090810a8201928316921993909316919091179092529490920196875260408051978890038201882060019081018054601f6002938216159098029095019094160494850182900482028801820190528387529094509192505083018282801561035f5780601f106103345761010080835404028352916020019161035f565b820191906000526020600020905b81548152906001019060200180831161034257829003601f168201915b50505050506020604051908101604052806000815250610f4c565b156103a35760405160e560020a62461bcd02815260040161039a90613450565b60405180910390fd5b6103ac84611034565b9250925050915091565b60606002805480602002602001604051908101604052809291908181526020016000905b828210156104f05760008481526020908190206040805160a081018252600586029092018054600160a060020a039081168452600180830154909116848601526002808301805485516101009482161594909402600019011691909104601f81018790048702830187018552808352949592949386019391929091908301828280156104a75780601f1061047c576101008083540402835291602001916104a7565b820191906000526020600020905b81548152906001019060200180831161048a57829003601f168201915b505050918352505060038201546020820152600482015460409091019060ff1660028111156104d257fe5b60028111156104dd57fe5b81525050815260200190600101906103da565b5050505090505b90565b3360009081526020819052604090206003015460ff1615156105315760405160e560020a62461bcd02815260040161039a90613460565b61053c83838361146e565b505050565b61054961289d565b3360009081526020819052604090206003015460ff1615156105805760405160e560020a62461bcd02815260040161039a90613460565b3360009081526020819052604090819020815160a081019092528054829060ff1660048111156105ac57fe5b60048111156105b757fe5b8152815461010090819004600160a060020a031660208084019190915260018085018054604080516002948316159096026000190190911692909204601f8101849004840285018401835280855291909401939183018282801561065c5780601f106106315761010080835404028352916020019161065c565b820191906000526020600020905b81548152906001019060200180831161063f57829003601f168201915b5050509183525050600282810180546040805160206001841615610100026000190190931694909404601f810183900483028501830190915280845293810193908301828280156106ee5780601f106106c3576101008083540402835291602001916106ee565b820191906000526020600020905b8154815290600101906020018083116106d157829003601f168201915b50505091835250506003919091015460ff161515602090910152905090565b3360009081526020819052604090206003015460ff1615156107445760405160e560020a62461bcd02815260040161039a90613460565b600233151561075257600080fd5b336000908152602081905260409020546101009004600160a060020a0316158015906107a5575080600481111561078557fe5b3360009081526020819052604090205460ff1660048111156107a357fe5b145b15156107c65760405160e560020a62461bcd02815260040161039a90613410565b61053c83836119d3565b3360009081526020819052604090206003015460609060ff16151561080a5760405160e560020a62461bcd02815260040161039a90613460565b610812611bad565b905090565b60606001805480602002602001604051908101604052809291908181526020016000905b828210156104f057838290600052602060002090600a0201610140604051908101604052908160008201548152602001600182018054600181600116156101000203166002900480601f0160208091040260200160405190810160405280929190818152602001828054600181600116156101000203166002900480156109035780601f106108d857610100808354040283529160200191610903565b820191906000526020600020905b8154815290600101906020018083116108e657829003601f168201915b5050509183525050600282810154600160a060020a031660208084019190915260038401805460408051601f600019600185161561010002019093169590950491820184900484028501840181528185529094019390918301828280156109ab5780601f10610980576101008083540402835291602001916109ab565b820191906000526020600020905b81548152906001019060200180831161098e57829003601f168201915b505050918352505060048201805460408051602060026001851615610100026000190190941693909304601f8101849004840282018401909252818152938201939291830182828015610a3f5780601f10610a1457610100808354040283529160200191610a3f565b820191906000526020600020905b815481529060010190602001808311610a2257829003601f168201915b505050918352505060058201805460408051602060026001851615610100026000190190941693909304601f8101849004840282018401909252818152938201939291830182828015610ad35780601f10610aa857610100808354040283529160200191610ad3565b820191906000526020600020905b815481529060010190602001808311610ab657829003601f168201915b505050505081526020016006820154815260200160078201548152602001600882015481526020016009820154815250508152602001906001019061083b565b3360009081526020819052604090206003015460ff161515610b4a5760405160e560020a62461bcd02815260040161039a90613460565b60013360009081526020819052604090205460ff166004811115610b6a57fe5b1480610b9157503360009081526020819052604081205460ff166004811115610b8f57fe5b145b1515610bb25760405160e560020a62461bcd02815260040161039a90613470565b610bbc8282612010565b5050565b3390565b610bd6816000015182602001516124a7565b15610bf65760405160e560020a62461bcd02815260040161039a90613440565b602080820151600160a060020a0316600090815290819052604090208151815483929190829060ff19166001836004811115610c2e57fe5b02179055506020828101518254600160a060020a039091166101000274ffffffffffffffffffffffffffffffffffffffff001990911617825560408301518051610c7e92600185019201906128cc565b5060608201518051610c9a9160028401916020909101906128cc565b50608091909101516003909101805460ff19169115159190911790556040818101516060830151835192517f71d9dffdac919adfd06ab94bdebcd997efa2ba73e829a41e63107c7f8ae330f693610cf29392916133dc565b60405180910390a150565b610d0561289d565b600160a060020a038216600090815260208190526040902060030154829060ff161515610d475760405160e560020a62461bcd02815260040161039a90613460565b600160a060020a03831660009081526020819052604090819020815160a081019092528054829060ff166004811115610d7c57fe5b6004811115610d8757fe5b8152815461010090819004600160a060020a031660208084019190915260018085018054604080516002948316159096026000190190911692909204601f81018490048402850184018352808552919094019391830182828015610e2c5780601f10610e0157610100808354040283529160200191610e2c565b820191906000526020600020905b815481529060010190602001808311610e0f57829003601f168201915b5050509183525050600282810180546040805160206001841615610100026000190190931694909404601f81018390048302850183019091528084529381019390830182828015610ebe5780601f10610e9357610100808354040283529160200191610ebe565b820191906000526020600020905b815481529060010190602001808311610ea157829003601f168201915b50505091835250506003919091015460ff1615156020909101529392505050565b610ee761282e565b81610f1c600382604051808280519060200190808383602083106102a75780518252601f199092019160209182019101610288565b15610f3c5760405160e560020a62461bcd02815260040161039a90613450565b610f4583612522565b9392505050565b6000816040516020018082805190602001908083835b60208310610f815780518252601f199092019160209182019101610f62565b6001836020036101000a03801982511681845116808217855250505050505090500191505060405160208183030381529060405280519060200120836040516020018082805190602001908083835b60208310610fef5780518252601f199092019160209182019101610fd0565b6001836020036101000a038019825116818451168082178552505050505050905001915050604051602081830303815290604052805190602001201490505b92915050565b61103c61282e565b61104461288b565b6003836040518082805190602001908083835b602083106110765780518252601f199092019160209182019101611057565b51815160209384036101000a600019018019909216911617905292019485525060405193849003810184208751909460059450889350918291908401908083835b602083106110d65780518252601f1990920191602091820191016110b7565b518151602093840361010090810a600019908101801990941693909216929092179092529290940196875260408051978890038201882061014089018252895489526001808b018054845160029382161590970290980190971604601f810184900484028501840190925281845297965088955086820194929350908301828280156111a35780601f10611178576101008083540402835291602001916111a3565b820191906000526020600020905b81548152906001019060200180831161118657829003601f168201915b5050509183525050600282810154600160a060020a031660208084019190915260038401805460408051601f6000196001851615610100020190931695909504918201849004840285018401815281855290940193909183018282801561124b5780601f106112205761010080835404028352916020019161124b565b820191906000526020600020905b81548152906001019060200180831161122e57829003601f168201915b505050918352505060048201805460408051602060026001851615610100026000190190941693909304601f81018490048402820184019092528181529382019392918301828280156112df5780601f106112b4576101008083540402835291602001916112df565b820191906000526020600020905b8154815290600101906020018083116112c257829003601f168201915b505050918352505060058201805460408051602060026001851615610100026000190190941693909304601f81018490048402820184019092528181529382019392918301828280156113735780601f1061134857610100808354040283529160200191611373565b820191906000526020600020905b81548152906001019060200180831161135657829003601f168201915b505050505081526020016006820154815260200160078201548152602001600882015481526020016009820154815250509150806020604051908101604052908160008201805480602002602001604051908101604052809291908181526020016000905b8282101561145c57600084815260209081902060408051608081018252600486029092018054600160a060020a03168352600181015493830193909352600280840154918301919091526003830154919291606084019160ff9091169081111561143e57fe5b600281111561144957fe5b81525050815260200190600101906113d8565b50505091525092945092505050915091565b816114a3600382604051808280519060200190808383602083106102a75780518252601f199092019160209182019101610288565b156114c35760405160e560020a62461bcd02815260040161039a90613450565b600280546001810180835560009290925285517f405787fa12a823e0f2b7631cc41b3ba8828b3321ca811111fa75cd3aa3bb5ace6005909202918201805473ffffffffffffffffffffffffffffffffffffffff19908116600160a060020a039384161782556020808a01517f405787fa12a823e0f2b7631cc41b3ba8828b3321ca811111fa75cd3aa3bb5acf8601805490931694169390931790556040880151805189949293611597937f405787fa12a823e0f2b7631cc41b3ba8828b3321ca811111fa75cd3aa3bb5ad0019201906128cc565b5060608201516003820155608082015160048201805460ff191660018360028111156115bf57fe5b02179055505050506115cf61282e565b6003846040518082805190602001908083835b602083106116015780518252601f1990920191602091820191016115e2565b518151602093840361010090810a6000199081018019909416939092169290921790925292909401968752604080519788900382018820610140890182528054895260018082018054845160029382161590970290980190971604601f810184900484028501840190925281845296508782019550919392508301828280156116cb5780601f106116a0576101008083540402835291602001916116cb565b820191906000526020600020905b8154815290600101906020018083116116ae57829003601f168201915b5050509183525050600282810154600160a060020a031660208084019190915260038401805460408051601f600019600185161561010002019093169590950491820184900484028501840181528185529094019390918301828280156117735780601f1061174857610100808354040283529160200191611773565b820191906000526020600020905b81548152906001019060200180831161175657829003601f168201915b505050918352505060048201805460408051602060026001851615610100026000190190941693909304601f81018490048402820184019092528181529382019392918301828280156118075780601f106117dc57610100808354040283529160200191611807565b820191906000526020600020905b8154815290600101906020018083116117ea57829003601f168201915b505050918352505060058201805460408051602060026001851615610100026000190190941693909304601f810184900484028201840190925281815293820193929183018282801561189b5780601f106118705761010080835404028352916020019161189b565b820191906000526020600020905b81548152906001019060200180831161187e57829003601f168201915b505050505081526020016006820154815260200160078201548152602001600882015481526020016009820154815250509050600581602001516040518082805190602001908083835b602083106119045780518252601f1990920191602091820191016118e5565b51815160209384036101000a600019018019909216911617905292019485525060408051948590038201852060808601825233865285830189815260009287018381526001606089018181528454808301808755958752969095208951600490970201805473ffffffffffffffffffffffffffffffffffffffff1916600160a060020a0390971696909617865591518583015551600280860191909155925160038501805493989750949550939260ff199092169184908111156119c457fe5b02179055505050505050505050565b81611a08600382604051808280519060200190808383602083106102a75780518252601f199092019160209182019101610288565b15611a285760405160e560020a62461bcd02815260040161039a90613450565b60006003846040518082805190602001908083835b60208310611a5c5780518252601f199092019160209182019101611a3d565b51815160209384036101000a600019018019909216911617905292019485525060405193849003019092209250611a95915061294a9050565b6040805160808101825233815242602082015290810185905260608101600281525090506005826001016040518082805460018160011615610100020316600290048015611b1a5780601f10611af8576101008083540402835291820191611b1a565b820191906000526020600020905b815481529060010190602001808311611b06575b505092835250506040805160209281900383019020805460018082018084556000938452928590208651600490930201805473ffffffffffffffffffffffffffffffffffffffff1916600160a060020a03909316929092178255938501518185015591840151600280840191909155606085015160038401805493958795949293919260ff19169184908111156119c457fe5b3360009081526004602090815260408083208054825181850281018501909352808352606094859484015b82821015611c835760008481526020908190208301805460408051601f6002600019610100600187161502019094169390930492830185900485028101850190915281815292830182828015611c6f5780601f10611c4457610100808354040283529160200191611c6f565b820191906000526020600020905b815481529060010190602001808311611c5257829003601f168201915b505050505081526020019060010190611bd8565b50505050905060608151604051908082528060200260200182016040528015611cc657816020015b611cb361282e565b815260200190600190039081611cab5790505b50905060005b82518110156120095760038382815181101515611ce557fe5b906020019060200201516040518082805190602001908083835b60208310611d1e5780518252601f199092019160209182019101611cff565b518151602093840361010090810a6000199081018019909416939092169290921790925292909401968752604080519788900382018820610140890182528054895260018082018054845160029382161590970290980190971604601f81018490048402850184019092528184529650878201955091939250830182828015611de85780601f10611dbd57610100808354040283529160200191611de8565b820191906000526020600020905b815481529060010190602001808311611dcb57829003601f168201915b5050509183525050600282810154600160a060020a031660208084019190915260038401805460408051601f60001960018516156101000201909316959095049182018490048402850184018152818552909401939091830182828015611e905780601f10611e6557610100808354040283529160200191611e90565b820191906000526020600020905b815481529060010190602001808311611e7357829003601f168201915b505050918352505060048201805460408051602060026001851615610100026000190190941693909304601f8101849004840282018401909252818152938201939291830182828015611f245780601f10611ef957610100808354040283529160200191611f24565b820191906000526020600020905b815481529060010190602001808311611f0757829003601f168201915b505050918352505060058201805460408051602060026001851615610100026000190190941693909304601f8101849004840282018401909252818152938201939291830182828015611fb85780601f10611f8d57610100808354040283529160200191611fb8565b820191906000526020600020905b815481529060010190602001808311611f9b57829003601f168201915b505050505081526020016006820154815260200160078201548152602001600882015481526020016009820154815250508282815181101515611ff757fe5b60209081029091010152600101611ccc565b5091505090565b8160200151612049600382604051808280519060200190808383602083106102a75780518252601f199092019160209182019101610288565b151561206a5760405160e560020a62461bcd02815260040161039a90613430565b6040830151600160a060020a031633146120995760405160e560020a62461bcd02815260040161039a90613420565b600180548082018083556000929092528451600a9091027fb10e2d527612073b26eecdfd717e6a320cf44b4afac2b0732d9fcbe2b7fa0cf681019182556020808701518051889493612111937fb10e2d527612073b26eecdfd717e6a320cf44b4afac2b0732d9fcbe2b7fa0cf79091019201906128cc565b50604082015160028201805473ffffffffffffffffffffffffffffffffffffffff1916600160a060020a03909216919091179055606082015180516121609160038401916020909101906128cc565b506080820151805161217c9160048401916020909101906128cc565b5060a082015180516121989160058401916020909101906128cc565b5060c0820151816006015560e082015181600701556101008201518160080155610120820151816009015550505082600384602001516040518082805190602001908083835b602083106121fd5780518252601f1990920191602091820191016121de565b51815160209384036101000a6000190180199092169116179052920194855250604051938490038101909320845181558484015180519194612247945060018601935001906128cc565b50604082015160028201805473ffffffffffffffffffffffffffffffffffffffff1916600160a060020a03909216919091179055606082015180516122969160038401916020909101906128cc565b50608082015180516122b29160048401916020909101906128cc565b5060a082015180516122ce9160058401916020909101906128cc565b5060c0820151816006015560e0820151816007015561010082015181600801556101208201518160090155905050600583602001516040518082805190602001908083835b602083106123325780518252601f199092019160209182019101612313565b51815160209384036101000a600019018019909216911617905292019485525060408051948590038201852060808601825233865285830188815260009287018381526060880184815283546001808201808755958752969095208951600490960201805473ffffffffffffffffffffffffffffffffffffffff1916600160a060020a03909616959095178555915184860155516002808501919091559051600384018054939897509395509360ff19909216919084908111156123f257fe5b021790555050336000908152600460209081526040822087820151815460018101808455928552938390208151929650612434955090930192909101906128cc565b50507fadad6db1d679a6c001629a71751b484c6ce3cc054bb9ade7a55e3336504ec7e8836000015184602001518560400151866060015187608001518860a001518960c001518a60e001518b610100015160405161249a999897969594939291906134c7565b60405180910390a1505050565b6000600160a060020a03821615156124be57600080fd5b600160a060020a0382811660009081526020819052604090205461010090041615801590610f4557508260048111156124f357fe5b600160a060020a03831660009081526020819052604090205460ff16600481111561251a57fe5b149392505050565b61252a61282e565b6003826040518082805190602001908083835b6020831061255c5780518252601f19909201916020918201910161253d565b518151602093840361010090810a6000199081018019909416939092169290921790925292909401968752604080519788900382018820610140890182528054895260018082018054845160029382161590970290980190971604601f810184900484028501840190925281845296508782019550919392508301828280156126265780601f106125fb57610100808354040283529160200191612626565b820191906000526020600020905b81548152906001019060200180831161260957829003601f168201915b5050509183525050600282810154600160a060020a031660208084019190915260038401805460408051601f600019600185161561010002019093169590950491820184900484028501840181528185529094019390918301828280156126ce5780601f106126a3576101008083540402835291602001916126ce565b820191906000526020600020905b8154815290600101906020018083116126b157829003601f168201915b505050918352505060048201805460408051602060026001851615610100026000190190941693909304601f81018490048402820184019092528181529382019392918301828280156127625780601f1061273757610100808354040283529160200191612762565b820191906000526020600020905b81548152906001019060200180831161274557829003601f168201915b505050918352505060058201805460408051602060026001851615610100026000190190941693909304601f81018490048402820184019092528181529382019392918301828280156127f65780601f106127cb576101008083540402835291602001916127f6565b820191906000526020600020905b8154815290600101906020018083116127d957829003601f168201915b505050505081526020016006820154815260200160078201548152602001600882015481526020016009820154815250509050919050565b6101406040519081016040528060008152602001606081526020016000600160a060020a03168152602001606081526020016060815260200160608152602001600081526020016000815260200160008152602001600081525090565b60408051602081019091526060815290565b6040805160a0810190915280600081526000602082018190526060604083018190528083015260809091015290565b828054600181600116156101000203166002900490600052602060002090601f016020900481019282601f1061290d57805160ff191683800117855561293a565b8280016001018555821561293a579182015b8281111561293a57825182559160200191906001019061291f565b5061294692915061296f565b5090565b6040805160808101825260008082526020820181905291810182905290606082015290565b6104f791905b808211156129465760008155600101612975565b6000610f4582356135c2565b6000610f4582356135cd565b6000610f4582356135f6565b6000610f458235613605565b6000601f820183136129ca57600080fd5b81356129dd6129d882613590565b613569565b915080825260208301602083018583830111156129f957600080fd5b612a0483828461362a565b50505092915050565b60006101408284031215612a2057600080fd5b612a2b610140613569565b90506000612a398484612c9c565b825250602082013567ffffffffffffffff811115612a5657600080fd5b612a62848285016129b9565b6020830152506040612a7684828501612989565b604083015250606082013567ffffffffffffffff811115612a9657600080fd5b612aa2848285016129b9565b606083015250608082013567ffffffffffffffff811115612ac257600080fd5b612ace848285016129b9565b60808301525060a082013567ffffffffffffffff811115612aee57600080fd5b612afa848285016129b9565b60a08301525060c0612b0e84828501612c9c565b60c08301525060e0612b2284828501612c9c565b60e083015250610100612b3784828501612c9c565b61010083015250610120612b4d84828501612c9c565b6101208301525092915050565b600060a08284031215612b6c57600080fd5b612b7660a0613569565b90506000612b848484612989565b8252506020612b9584848301612989565b602083015250604082013567ffffffffffffffff811115612bb557600080fd5b612bc1848285016129b9565b6040830152506060612bd584828501612c9c565b6060830152506080612be9848285016129a1565b60808301525092915050565b600060a08284031215612c0757600080fd5b612c1160a0613569565b90506000612c1f84846129ad565b8252506020612c3084848301612989565b602083015250604082013567ffffffffffffffff811115612c5057600080fd5b612c5c848285016129b9565b604083015250606082013567ffffffffffffffff811115612c7c57600080fd5b612c88848285016129b9565b6060830152506080612be984828501612995565b6000610f4582356104f7565b600060208284031215612cba57600080fd5b6000612cc68484612989565b949350505050565b600060208284031215612ce057600080fd5b813567ffffffffffffffff811115612cf757600080fd5b612cc6848285016129b9565b60008060408385031215612d1657600080fd5b823567ffffffffffffffff811115612d2d57600080fd5b612d39858286016129b9565b9250506020612d4a85828601612c9c565b9150509250929050565b60008060408385031215612d6757600080fd5b823567ffffffffffffffff811115612d7e57600080fd5b612d3985828601612a0d565b600080600060608486031215612d9f57600080fd5b833567ffffffffffffffff811115612db657600080fd5b612dc286828701612b5a565b935050602084013567ffffffffffffffff811115612ddf57600080fd5b612deb868287016129b9565b9250506040612dfc86828701612c9c565b9150509250925092565b600060208284031215612e1857600080fd5b813567ffffffffffffffff811115612e2f57600080fd5b612cc684828501612bf5565b612e44816135c2565b82525050565b6000612e55826135be565b80845260208401935083602082028501612e6e856135b8565b60005b84811015612ea5578383038852612e89838351613196565b9250612e94826135b8565b602098909801979150600101612e71565b50909695505050505050565b6000612ebc826135be565b80845260208401935083602082028501612ed5856135b8565b60005b84811015612ea5578383038852612ef083835161327e565b9250612efb826135b8565b602098909801979150600101612ed8565b6000612f17826135be565b808452602084019350612f29836135b8565b60005b82811015612f5957612f3f868351613353565b612f48826135b8565b608096909601959150600101612f2c565b5093949350505050565b612e44816135cd565b612e4481613614565b612e448161361f565b6000612f89826135be565b808452612f9d816020860160208601613636565b612fa681613662565b9093016020019392505050565b602181527f556e617574686f72697a65642c206e6f7420612064617461626173652075736560208201527f7200000000000000000000000000000000000000000000000000000000000000604082015260600190565b602481527f4f6e6c7920757365722063616e2061646420697473206f776e2075736572277360208201527f206c6f7400000000000000000000000000000000000000000000000000000000604082015260600190565b601781527f6c6f7420646f657320616c726561647920657869737473000000000000000000602082015260400190565b602c81527f53746573736f207574656e746520636f6e2073746573736f2072756f6c6f206760208201527f6961206573697374656e74650000000000000000000000000000000000000000604082015260600190565b601381527f6c6f7420646f6573206e6f742065786973747300000000000000000000000000602082015260400190565b601381527f5573657220646f6573206e6f7420657869737400000000000000000000000000602082015260400190565b601881527f53656e646572206973206e6f7420617574686f72697a65640000000000000000602082015260400190565b805160208084526000919084019061318d8282612f0c565b95945050505050565b80516000906101408401906131ab85826133a3565b50602083015184820360208601526131c38282612f7e565b91505060408301516131d86040860182612e3b565b50606083015184820360608601526131f08282612f7e565b9150506080830151848203608086015261320a8282612f7e565b91505060a083015184820360a08601526132248282612f7e565b91505060c083015161323960c08601826133a3565b5060e083015161324c60e08601826133a3565b506101008301516132616101008601826133a3565b506101208301516132766101208601826133a3565b509392505050565b805160009060a08401906132928582612e3b565b5060208301516132a56020860182612e3b565b50604083015184820360408601526132bd8282612f7e565b91505060608301516132d260608601826133a3565b5060808301516132766080860182612f6c565b805160009060a08401906132f98582612f75565b50602083015161330c6020860182612e3b565b50604083015184820360408601526133248282612f7e565b9150506060830151848203606086015261333e8282612f7e565b91505060808301516132766080860182612f63565b805160808301906133648482612e3b565b50602082015161337760208501826133a3565b50604082015161338a60408501826133a3565b50606082015161339d6060850182612f6c565b50505050565b612e44816104f7565b6020810161102e8284612e3b565b60208082528101610f458184612e4a565b60208082528101610f458184612eb1565b606080825281016133ed8186612f7e565b905081810360208301526134018185612f7e565b9050612cc66040830184612f75565b6020808252810161102e81612fb3565b6020808252810161102e81613009565b6020808252810161102e8161305f565b6020808252810161102e8161308f565b6020808252810161102e816130e5565b6020808252810161102e81613115565b6020808252810161102e81613145565b60208082528101610f458184613196565b604080825281016134a28185613196565b90508181036020830152612cc68184613175565b60208082528101610f4581846132e5565b61012081016134d6828c6133a3565b81810360208301526134e8818b612f7e565b90506134f7604083018a612e3b565b81810360608301526135098189612f7e565b9050818103608083015261351d8188612f7e565b905081810360a08301526135318187612f7e565b905061354060c08301866133a3565b61354d60e08301856133a3565b61355b6101008301846133a3565b9a9950505050505050505050565b60405181810167ffffffffffffffff8111828210171561358857600080fd5b604052919050565b600067ffffffffffffffff8211156135a757600080fd5b506020601f91909101601f19160190565b60200190565b5190565b600061102e826135ea565b151590565b60006003821061294657fe5b60006005821061294657fe5b600160a060020a031690565b60006003821061294657600080fd5b60006005821061294657600080fd5b600061102e826135d2565b600061102e826135de565b82818337506000910152565b60005b83811015613651578181015183820152602001613639565b8381111561339d5750506000910152565b601f01601f19169056fea265627a7a72305820b5d3f1e7709dd1ad5024b5348ed6962c0f72541f4e92c353f63adc4c2e0a17cd6c6578706572696d656e74616cf50037",
  "source": "// SPDX-License-Identifier: GPL-3.0\npragma experimental ABIEncoderV2;\npragma solidity >=0.4.25 <0.9.0;\n\nimport \"./Lots.sol\";\nimport \"./Users.sol\";\nimport \"./oss.sol\";\nimport \"./sms.sol\";\ncontract SupplyChain is Users, Lots, oss, sms {\n\n    function addLot(Types.Lot memory lot_, uint256 currentTime_)\n        public\n        userExists\n        onlyManufacturers\n    {\n\n        addALot(lot_, currentTime_);\n    }\n    \n    function addTransaction(Types.Transaction memory transaction_,string memory barcodeId_, uint256 currentTime_)\n        public\n        userExists\n    {\n        add_transaction(transaction_, barcodeId_, currentTime_);\n    }\n\n        function updateStockdate(string memory barcodeId_, uint256 newStockDate)\n        public\n        userExists\n        hasRole(Types.UserRole.database)\n    {\n        update_StockDate(barcodeId_, newStockDate);\n    }\n\n    function getAllTransactions() public view returns (Types.Transaction[] memory) {\n        return transactions;\n    }\n\n    function getAllLots() public view returns (Types.Lot[] memory) {\n        return lots;\n    }\n\n    function getMyAddress() public view  returns (address) {\n        return msg.sender;\n    }\n\n        function getMyLots() public view userExists returns (Types.Lot[] memory) {\n        return getUserLots();\n    }\n\n        function getSingleLot(string memory barcodeId_)\n        public\n        view\n        LotExists(barcodeId_)\n        returns (Types.Lot memory)\n    {\n        return getSpecificLot(barcodeId_);\n    }\n\n    function getSingleLotHistory(string memory barcodeId_)\n        public\n        view\n        LotExists(barcodeId_)\n        returns (Types.Lot memory, Types.LotHistory memory)\n    {\n        return getSpecificLotHistory(barcodeId_);\n    }\n\n    function getUserDetails(address id_)\n        public\n        view\n        otherUserExists(id_)\n        returns (Types.UserDetails memory)\n    {\n        return users[id_];\n    }\n\n    function getMyDetails() public view userExists returns (Types.UserDetails memory) {\n        return users[msg.sender];\n    }\n    \n}\n",
  "sourcePath": "/home/sim/supplychain/contracts/SupplyChain.sol",
  "compiler": {
    "name": "solc",
    "version": "0.5.0+commit.1d4f565a.Emscripten.clang"
  },
  "schemaVersion": "3.0.1",
  "updatedAt": "2023-12-17T01:05:34.154Z",
  "devdoc": {
    "methods": {}
  },
  "userdoc": {
    "methods": {}
  }
}