{
  "contractName": "Users",
  "abi": [
    {
      "inputs": [],
      "payable": false,
      "stateMutability": "nonpayable",
      "type": "constructor"
    },
    {
      "anonymous": false,
      "inputs": [
        {
          "indexed": false,
          "name": "name",
          "type": "string"
        },
        {
          "indexed": false,
          "name": "email",
          "type": "string"
        },
        {
          "indexed": false,
          "name": "role",
          "type": "uint8"
        }
      ],
      "name": "NewUser",
      "type": "event"
    },
    {
      "anonymous": false,
      "inputs": [
        {
          "indexed": false,
          "name": "name",
          "type": "string"
        },
        {
          "indexed": false,
          "name": "email",
          "type": "string"
        },
        {
          "indexed": false,
          "name": "role",
          "type": "uint8"
        }
      ],
      "name": "LostUser",
      "type": "event"
    },
    {
      "constant": false,
      "inputs": [
        {
          "components": [
            {
              "name": "role",
              "type": "uint8"
            },
            {
              "name": "id_",
              "type": "address"
            },
            {
              "name": "name",
              "type": "string"
            },
            {
              "name": "email",
              "type": "string"
            },
            {
              "name": "isValue",
              "type": "bool"
            }
          ],
          "name": "user",
          "type": "tuple"
        }
      ],
      "name": "addUser",
      "outputs": [],
      "payable": false,
      "stateMutability": "nonpayable",
      "type": "function"
    }
  ],
  "bytecode": "0x608060405234801561001057600080fd5b5061001961016c565b506040805160a081018252600180825273404bec9172f4c55790e9f2d9dbbdbc5feb4d215c602080840191825284518086018652600381527f496f540000000000000000000000000000000000000000000000000000000000818301528486015284518086018652600f81527f496f54406578616d706c652e636f6d0000000000000000000000000000000000818301526060850152608084018390529051600160a060020a0316600090815290819052929092208151815492938493839160ff19909116908360048111156100eb57fe5b02179055506020828101518254600160a060020a039091166101000261010060a860020a03199091161782556040830151805161012e926001850192019061019b565b506060820151805161014a91600284019160209091019061019b565b50608091909101516003909101805460ff191691151591909117905550610236565b6040805160a0810190915280600081526000602082018190526060604083018190528083015260809091015290565b828054600181600116156101000203166002900490600052602060002090601f016020900481019282601f106101dc57805160ff1916838001178555610209565b82800160010185558215610209579182015b828111156102095782518255916020019190600101906101ee565b50610215929150610219565b5090565b61023391905b80821115610215576000815560010161021f565b90565b610686806102456000396000f3fe6080604052600436106100405763ffffffff7c0100000000000000000000000000000000000000000000000000000000600035041663b935dc378114610045575b600080fd5b34801561005157600080fd5b50610065610060366004610443565b610067565b005b610079816000015182602001516101da565b156100b9576040517f08c379a00000000000000000000000000000000000000000000000000000000081526004016100b09061054e565b60405180910390fd5b60208082015173ffffffffffffffffffffffffffffffffffffffff16600090815290819052604090208151815483929190829060ff191660018360048111156100fe57fe5b0217905550602082810151825473ffffffffffffffffffffffffffffffffffffffff9091166101000274ffffffffffffffffffffffffffffffffffffffff00199091161782556040830151805161015b926001850192019061027d565b506060820151805161017791600284019160209091019061027d565b50608091909101516003909101805460ff19169115159190911790556040818101516060830151835192517f71d9dffdac919adfd06ab94bdebcd997efa2ba73e829a41e63107c7f8ae330f6936101cf93929161051a565b60405180910390a150565b600073ffffffffffffffffffffffffffffffffffffffff821615156101fe57600080fd5b73ffffffffffffffffffffffffffffffffffffffff82811660009081526020819052604090205461010090041615801590610276575082600481111561024057fe5b73ffffffffffffffffffffffffffffffffffffffff831660009081526020819052604090205460ff16600481111561027457fe5b145b9392505050565b828054600181600116156101000203166002900490600052602060002090601f016020900481019282601f106102be57805160ff19168380011785556102eb565b828001600101855582156102eb579182015b828111156102eb5782518255916020019190600101906102d0565b506102f79291506102fb565b5090565b61031591905b808211156102f75760008155600101610301565b90565b600061027682356105dc565b600061027682356105e7565b600061027682356105ec565b6000601f8201831361034d57600080fd5b813561036061035b8261058b565b610564565b9150808252602083016020830185838301111561037c57600080fd5b610387838284610606565b50505092915050565b600060a082840312156103a257600080fd5b6103ac60a0610564565b905060006103ba8484610330565b82525060206103cb84848301610318565b602083015250604082013567ffffffffffffffff8111156103eb57600080fd5b6103f78482850161033c565b604083015250606082013567ffffffffffffffff81111561041757600080fd5b6104238482850161033c565b606083015250608061043784828501610324565b60808301525092915050565b60006020828403121561045557600080fd5b813567ffffffffffffffff81111561046c57600080fd5b61047884828501610390565b949350505050565b610489816105fb565b82525050565b600061049a826105b3565b8084526104ae816020860160208601610612565b6104b781610642565b9093016020019392505050565b602c81527f53746573736f207574656e746520636f6e2073746573736f2072756f6c6f206760208201527f6961206573697374656e74650000000000000000000000000000000000000000604082015260600190565b6060808252810161052b818661048f565b9050818103602083015261053f818561048f565b90506104786040830184610480565b6020808252810161055e816104c4565b92915050565b60405181810167ffffffffffffffff8111828210171561058357600080fd5b604052919050565b600067ffffffffffffffff8211156105a257600080fd5b506020601f91909101601f19160190565b5190565b6000600582106102f757fe5b73ffffffffffffffffffffffffffffffffffffffff1690565b600061055e826105c3565b151590565b6000600582106102f757600080fd5b600061055e826105b7565b82818337506000910152565b60005b8381101561062d578181015183820152602001610615565b8381111561063c576000848401525b50505050565b601f01601f19169056fea265627a7a7230582002b6818aa65c32490f9b40062eb5d0fcea23878f7b415c2a9364ebb50740270f6c6578706572696d656e74616cf50037",
  "source": "// SPDX-License-Identifier: GPL-3.0\npragma experimental ABIEncoderV2;\npragma solidity >=0.4.25 <0.9.0;\n\nimport \"./Types.sol\";\n\n\ncontract Users {\n    mapping(address => Types.UserDetails) internal users;\n\n        \n    constructor() public {\n        Types.UserDetails memory specificUser = Types.UserDetails({\n            role: Types.UserRole.device,\n            id_: 0x404BEc9172f4c55790e9f2D9dBbdBc5feb4d215C,\n            name: \"IoT\",\n            email: \"IoT@example.com\",\n            isValue: true\n        });\n\n\n        users[specificUser.id_] = specificUser;\n    }\n\n    event NewUser(string name, string email, Types.UserRole role);\n    event LostUser(string name, string email, Types.UserRole role);\n   \n   \n    function addUser(Types.UserDetails memory user) public {\n     require(!has(user.role, user.id_), \"Stesso utente con stesso ruolo gia esistente\");\n        users[user.id_] = user;\n        emit NewUser(user.name, user.email, user.role);\n    }\n\n    function get(address account)\n        internal\n        view\n        returns (Types.UserDetails memory)\n    {\n        require(account != address(0));\n        return users[account];\n    }\n\n    function has(Types.UserRole role, address account) //usato in addUser\n        internal\n        view\n        returns (bool)\n    {\n        require(account != address(0));\n        return (users[account].id_ != address(0) &&\n            users[account].role == role); \n    }\n\nmodifier hasRole(Types.UserRole role) {\n    require(msg.sender != address(0));\n    require(users[msg.sender].id_ != address(0) && users[msg.sender].role == role, \"Unauthorized, not a database user\");\n    _;\n}\n    \n    //controlla che solo i device, producers e database possano scrivere sulla blockchain\n    modifier onlyManufacturers() {\n    require(\n        users[msg.sender].role == Types.UserRole.device ||\n        users[msg.sender].role == Types.UserRole.producer,\n        \"Sender is not authorized\"\n            );\n            _;\n    }\n\n    //controlla che il sender ha un utente\n    modifier userExists() {\n    require(users[msg.sender].isValue, \"User does not exist\");\n    _;\n}\n\n    //controlla che l'indirizzo ha un utente\n    modifier otherUserExists(address id_) {\n    require(users[id_].isValue, \"User does not exist\");\n    _;\n}\n}\n",
  "sourcePath": "/home/sim/supplychain/contracts/Users.sol",
  "compiler": {
    "name": "solc",
    "version": "0.5.0+commit.1d4f565a.Emscripten.clang"
  },
  "schemaVersion": "3.0.1",
  "updatedAt": "2023-12-17T00:35:40.706Z",
  "devdoc": {
    "methods": {}
  },
  "userdoc": {
    "methods": {}
  }
}